:020000040800F2
:10000000000001203117000881170008811700083F
:100010008117000881170008811700080000000000
:100020000000000000000000000000008117000830
:1000300081170008000000008117000881170008E0
:1000400000000000811700088117000881170008D0
:100050008117000881170008811700088117000820
:1000600081170008811700088117000800000000B0
:100070000000000000000000000000000000000080
:1000800000000000000000008117000800000000D0
:1000900000000000000000000000000081170008C0
:1000A00081170008811700088117000881170008D0
:1000B000AF15000881170008000000008117000834
:1000C00081170008811700088117000881170008B0
:1000D0008117000800000000000000000000000080
:1000E0008117000881170008811700080000000030
:1000F0000000000000000000000000000000000000
:1001000000000000811700080000000081170008AF
:1001100000000000000000000000000000000000DF
:1001200000000000000000000000000000000000CF
:1001300000000000000000000000000000000000BF
:10014000000000000000000000000000811700080F
:10015000000000000000000000000000000000009F
:10016000811700088117000800000000000000004F
:10017000000000000000000000000000000000007F
:1001800000000000811700080000000000000000CF
:0401900081170008CB
:1001940010B5054C237833B9044B13B10448AFF3BD
:1001A40000800123237010BD3404002000000000EF
:1001B400A419000808B5034B1BB103490348AFF366
:1001C400008008BD0000000038040020A4190008C5
:1001D40081F0004102E000BF83F0004330B54FEAF4
:1001E40041044FEA430594EA050F08BF90EA020F61
:1001F4001FBF54EA000C55EA020C7FEA645C7FEAF4
:10020400655C00F0E2804FEA5454D4EB5555B8BF16
:100214006D420CDD2C4480EA020281EA030382EA87
:10022400000083EA010180EA020281EA0303362D19
:1002340088BF30BD11F0004F4FEA01314FF4801CEC
:100244004CEA113102D0404261EB410113F0004FFE
:100254004FEA03334CEA133302D0524263EB4303B5
:1002640094EA050F00F0A780A4F10104D5F1200E53
:100274000DDB02FA0EFC22FA05F2801841F10001AE
:1002840003FA0EF2801843FA05F359410EE0A5F182
:1002940020050EF1200E012A03FA0EFC28BF4CF0B3
:1002A400020C43FA05F3C01851EBE37101F0004569
:1002B40007D54FF0000EDCF1000C7EEB00006EEB76
:1002C4000101B1F5801F1BD3B1F5001F0CD3490800
:1002D4005FEA30004FEA3C0C04F101044FEA445257
:1002E40012F5800F80F09A80BCF1004F08BF5FEADE
:1002F400500C50F1000041EB045141EA050130BDBE
:100304005FEA4C0C404141EB010111F4801FA4F160
:100314000104E9D191F0000F04BF01460020B1FAB5
:1003240081F308BF2033A3F10B03B3F120020CDAED
:100334000C3208DD02F1140CC2F10C0201FA0CF0CB
:1003440021FA02F10CE002F11402D8BFC2F1200C30
:1003540001FA02F120FA0CFCDCBF41EA0C019040E6
:10036400E41AA2BF01EB0451294330BD6FEA04042F
:100374001F3C1CDA0C340EDC04F11404C4F120021A
:1003840020FA04F001FA02F340EA030021FA04F32C
:1003940045EA030130BDC4F10C04C4F1200220FA83
:1003A40002F001FA04F340EA0300294630BD21FAC1
:1003B40004F0294630BD94F0000F83F4801306BF87
:1003C40081F480110134013D4EE77FEA645C18BF7B
:1003D4007FEA655C29D094EA050F08BF90EA020F12
:1003E40005D054EA000C04BF1946104630BD91EA0A
:1003F400030F1EBF0021002030BD5FEA545C05D10D
:100404004000494128BF41F0004130BD14F580044B
:100414003CBF01F5801130BD01F0004545F0FE41BF
:1004240041F470014FF0000030BD7FEA645C1ABFF4
:10043400194610467FEA655C1CBF0B46024650EA2B
:10044400013406BF52EA033591EA030F41F4002157
:1004540030BD00BF90F0000F04BF0021704730B5DD
:100464004FF4806404F132044FF000054FF00001B2
:1004740050E700BF90F0000F04BF0021704730B573
:100484004FF4806404F1320410F0004548BF404248
:100494004FF000013EE700BF42004FEAE2014FEA9D
:1004A40031014FEA02701FBF12F07F4393F07F4F78
:1004B40081F06051704732F07F4208BF704793F07B
:1004C4007F4F04BF41F40021704730B54FF460748E
:1004D40001F0004521F000411CE700BF50EA010291
:1004E40008BF704730B54FF000050AE050EA01023A
:1004F40008BF704730B511F0004502D5404261EBAA
:1005040041014FF4806404F132045FEA915C3FF4EA
:10051400D8AE4FF003025FEADC0C18BF03325FEA87
:10052400DC0C18BF033202EBDC02C2F1200300FA38
:1005340003FC20FA02F001FA03FE40EA0E0021FA5D
:1005440002F11444BDE600BF70B54FF0FF0C4CF44B
:10055400E06C1CEA11541DBF1CEA135594EA0C0FFD
:1005640095EA0C0F00F0DEF82C4481EA030621EA38
:100574004C5123EA4C5350EA013518BF52EA033573
:1005840041F4801143F4801338D0A0FB02CE4FF025
:100594000005E1FB02E506F00042E0FB03E54FF055
:1005A4000006E1FB03569CF0000F18BF4EF0010E4D
:1005B400A4F1FF04B6F5007F64F5407404D25FEA49
:1005C4004E0E6D4146EB060642EAC62141EA5551FC
:1005D4004FEAC52040EA5E504FEACE2EB4F1FD0C3E
:1005E40088BFBCF5E06F1ED8BEF1004F08BF5FEABC
:1005F400500E50F1000041EB045170BD06F000466E
:1006040046EA010140EA020081EA0301B4EB5C041A
:10061400C2BFD4EB0C0541EA045170BD41F4801112
:100624004FF0000E013C00F3AB8014F1360FDEBF37
:10063400002001F0004170BDC4F10004203C35DA13
:100644000C341BDC04F11404C4F1200500FA05F396
:1006540020FA04F001FA05F240EA020001F0004237
:1006640021F0004110EBD37021FA04F642EB0601AD
:100674005EEA430E08BF20EAD37070BDC4F10C04D7
:10068400C4F1200500FA04F320FA05F001FA04F29B
:1006940040EA020001F0004110EBD37041F1000187
:1006A4005EEA430E08BF20EAD37070BDC4F1200592
:1006B40000FA05F24EEA020E20FA04F301FA05F2FA
:1006C40043EA020321FA04F001F0004121FA04F2A2
:1006D40020EA020000EBD3705EEA430E08BF20EA72
:1006E400D37070BD94F0000F0FD101F000464000AC
:1006F40041EB010111F4801F08BF013CF7D041EA2E
:10070400060195F0000F18BF704703F00046520031
:1007140043EB030313F4801F08BF013DF7D043EA02
:100724000603704794EA0C0F0CEA135518BF95EAB8
:100734000C0F0CD050EA410618BF52EA4306D1D13F
:1007440081EA030101F000414FF0000070BD50EA5E
:10075400410606BF1046194652EA430619D094EAE8
:100764000C0F02D150EA013613D195EA0C0F05D1D2
:1007740052EA03361CBF104619460AD181EA030126
:1007840001F0004141F0FE4141F470014FF00000DE
:1007940070BD41F0FE4141F4780170BD70B54FF079
:1007A400FF0C4CF4E06C1CEA11541DBF1CEA1355F9
:1007B40094EA0C0F95EA0C0F00F0A7F8A4EB0504DB
:1007C40081EA030E52EA03354FEA013100F08880D2
:1007D4004FEA03334FF0805545EA131343EA12639B
:1007E4004FEA022245EA111545EA10654FEA002650
:1007F4000EF000419D4208BF964244F1FD0404F509
:10080400407402D25B084FEA3202B61A65EB030564
:100814005B084FEA32024FF480104FF4002CB6EB21
:10082400020E75EB030E22BFB61A754640EA0C00A1
:100834005B084FEA3202B6EB020E75EB030E22BFE1
:10084400B61A754640EA5C005B084FEA3202B6EB22
:10085400020E75EB030E22BFB61A754640EA9C00E1
:100864005B084FEA3202B6EB020E75EB030E22BFB1
:10087400B61A754640EADC0055EA060E18D04FEA6F
:10088400051545EA16754FEA06164FEAC30343EA0F
:1008940052734FEAC2025FEA1C1CC0D111F4801FDC
:1008A4000BD141EA00014FF000004FF0004CB6E7D5
:1008B40011F4801F04BF01430020B4F1FD0C88BF74
:1008C400BCF5E06F3FF6AFAEB5EB030C04BFB6EB7F
:1008D400020C5FEA500C50F1000041EB045170BD72
:1008E4000EF0004E4EEA113114EB5C04C2BFD4EB9F
:1008F4000C0541EA045170BD41F480114FF0000E23
:10090400013C90E645EA060E8DE60CEA135594EA9E
:100914000C0F08BF95EA0C0F3FF43BAF94EA0C0FA1
:100924000AD150EA01347FF434AF95EA0C0F7FF416
:1009340025AF104619462CE795EA0C0F06D152EA6A
:1009440003353FF4FDAE1046194622E750EA41064E
:1009540018BF52EA43067FF4C5AE50EA41047FF45F
:100964000DAF52EA43057FF4EBAE12E74FF0FF3CC4
:1009740006E000BF4FF0010C02E000BF4FF0010C95
:100984004DF804CD4FEA410C7FEA6C5C4FEA430C0E
:1009940018BF7FEA6C5C1BD001B050EA410C0CBF5D
:1009A40052EA430C91EA030F02BF90EA020F0020BF
:1009B400704710F1000F91EA030F58BF994208BF26
:1009C40090422CBFD8176FEAE37040F001007047E3
:1009D4004FEA410C7FEA6C5C02D150EA013C07D13A
:1009E4004FEA430C7FEA6C5CD6D152EA033CD3D085
:1009F4005DF8040B704700BF8446104662468C467F
:100A04001946634600E000BF01B5FFF7B7FF0028B1
:100A140048BF10F1000F01BD4DF808EDFFF7F4FFDA
:100A24000CBF012000205DF808FB00BF4DF808ED65
:100A3400FFF7EAFF34BF012000205DF808FB00BF88
:100A44004DF808EDFFF7E0FF94BF012000205DF8AA
:100A540008FB00BF4DF808EDFFF7CEFF94BF01205F
:100A640000205DF808FB00BF4DF808EDFFF7C4FF58
:100A740034BF012000205DF808FB00BF4A0011D2FA
:100A840012F5001211D20DD56FF47873B3EB6252E4
:100A94000ED44FEAC12343F0004343EA505323FAF0
:100AA40002F070474FF00000704750EA013002D165
:100AB4004FF0FF3070474FF0000070474FEA41029B
:100AC400B2F1E04324BFB3F5001CDCF1FE5C0DD9A8
:100AD40001F0004C4FEAC0024CEA5070B2F1004FF2
:100AE40040EB830008BF20F00100704711F0804FF5
:100AF40021D113F13872BCBF01F00040704741F4BA
:100B040080114FEA5252C2F11802C2F1200C10FABD
:100B14000CF320FA02F018BF40F001004FEAC123A1
:100B24004FEAD32303FA0CFC40EA0C0023FA02F345
:100B34004FEA4303CCE77FEA625307D150EA01331B
:100B44001EBF4FF0FE4040F44000704701F00040EB
:100B540040F0FE4040F40000704700BF80B582B012
:100B640000AF002301220221154800F021FC0023DC
:100B740001220321124800F01BFC0023012204215E
:100B84000F4800F015FC00237B6009E07B68D9B2B4
:100B9400012301220B4800F00BFC7B6801337B60CE
:100BA4007B68072BF2DD382000F00EF80C2000F0F3
:100BB4000BF8012000F008F800BF0837BD4680BDDF
:100BC400000002400004024080B588B000AF034634
:100BD400FB7100220321334800F050FC0022022163
:100BE400304800F04BFC0023FB6102E0FB69013359
:100BF400FB61FB6941F287329342F7DD0023BB615D
:100C040002E0BB690133BB61BB6941F287329342A5
:100C1400F7DD01220421234800F030FC00237B612E
:100C240002E07B6901337B617B6941F28732934245
:100C3400F7DD00233B6112E03B69D9B201223B6935
:100C440002FA03F35AB297F9073013405BB2DBB2EE
:100C54001A46154800F012FC3B6901333B613B69BD
:100C6400072BE9DD0023FB6002E0FB680133FB6036
:100C7400FB6841F287329342F7DD002204210948E0
:100C840000F0FCFB0023BB6002E0BB680133BB60E7
:100C9400BB6841F287329342F7DD00BF2037BD467F
:100CA40080BD00BF000002400004024080B588B04F
:100CB40000AF0346FB71002203212D4800F0DEFB48
:100CC400012202212A4800F0D9FB0023FB6102E043
:100CD400FB690133FB61FB6941F287329342F7DD23
:100CE40001220421224800F0C9FB0023BB6102E079
:100CF400BB690133BB61BB6941F287329342F7DDC3
:100D040000237B6112E07B69D9B201227B6902FA7C
:100D140003F35AB297F9073013405BB2DBB21A46B9
:100D2400144800F0ABFB7B6901337B617B69072BC3
:100D3400E9DD00233B6102E03B6901333B613B6930
:100D440041F287329342F7DD00220421084800F083
:100D540095FB0023FB6002E0FB680133FB60FB684A
:100D640041F287329342F7DD00BF2037BD4680BD94
:100D7400000002400004024080B584B000AF7860F7
:100D84000023FB7309E0FB7B7A6813441B78184645
:100D9400FFF78CFFFB7B0133FB73FB7B7A68134407
:100DA4001B78002BEFD100BF1037BD4680BD80B546
:100DB40086B000AF78607B6807F108010A22184604
:100DC40000F01EFD07F108031846FFF7D5FF00BF2A
:100DD4001837BD4680BD80B500AF0120FFF7F4FE93
:100DE40000BF80BD80B483B000AF0346FB71374BB6
:100DF4001B6B364A43F002031363344B1B6C334AB8
:100E040043F004031364324B1B68314A23F48023F8
:100E140013602F4B1B682E4A43F4002313602C4BA2
:100E24005B6A2B4A43F0200353622A4B1B889BB214
:100E3400284A43F080039BB21380264B9B8B9BB2C2
:100E4400244A23F480539BB29383224B9B8B9BB203
:100E5400204A43F400539BB293831E4B9B8B9BB25B
:100E64001C4A43F480439BB293831A4B9B8B9BB2E3
:100E7400184A43F400639BB29383164B1B8C9BB2BA
:100E8400144A43F480539BB21384124B40F23F62E2
:100E94001A85104BFF22DA620E4AFB7913640D4B5C
:100EA4009B8A9BB20B4A43F001039BB29382094B8A
:100EB4001B889BB2074A43F001039BB2138000BF17
:100EC4000C37BD465DF8047B704700BF0038024014
:100ED400000402400008004090B587B000AF87EDE1
:100EE400000B4FF000024FF00003D7E90001FFF7B9
:100EF40093FD0346002B03D00020FFF773FF7EE031
:100F0400D7E900234FF000003F49FFF765F9034696
:100F14000C4618462146FFF7D1FD0346BB603B4B08
:100F240093ED007AD7ED027A77EE277A374BC3ED4B
:100F3400007AD7ED027A9FED367A67EE877AB2EEC1
:100F4400047A27EE877A314BD3ED007ADFED316AEC
:100F540067EEA67AF2EE046A67EEA67A77EE277A4F
:100F640017EE900AFFF798FA03460C46C7E90434D3
:100F74004FF00002284BD7E90401FFF7E5FA0346D6
:100F84000C46C7E904344FF00002244BD7E90401AE
:100F9400FFF76AFD0346002B04D04FF000031F4CFB
:100FA400C7E904344FF000024FF00003D7E904010D
:100FB400FFF73CFD0346002B05D04FF000034FF034
:100FC4000004C7E90434D7E90401FFF757FD0346D9
:100FD4001846FFF7ECFE0023FB7302E0FB7B0133B2
:100FE400FB73FB7B632BF9D9FFF7F5FED7E904010B
:100FF400FFF744FD0346DBB21846FFF7F3FE00BFDC
:101004001C37BD4690BD00BF00003E405004002088
:10101400CDCCCC3D0AD7233C00002440004067409F
:1010240080B483B000AF0346FB71FB7903F01F0269
:10103400074997F907305B09012000FA02F241F8E9
:10104400232000BF0C37BD465DF8047B704700BF0A
:1010540000E100E080B400AF104B1B6C0F4A43F07A
:10106400010313644FF0804340F23F621A854FF04E
:1010740080436422DA624FF0804300225A624FF0C8
:1010840080431B889BB24FF0804243F001039BB224
:10109400138000BFBD465DF8047B704700380240F2
:1010A40080B500AF4FF080439B899BB24FF08042E4
:1010B40043F001039BB293811C20FFF7B1FF00BFF3
:1010C40080BD80B500AF00F00BFA00BF80BD00000A
:1010D40080B400AF504B1B6B4F4A43F001031363C2
:1010E4004E4B1B684D4A23F4806313604B4B1B68C3
:1010F4004A4A43F400631360484B1B68474A23F48D
:1011040080531360454B1B68444A43F400531360F7
:10111400424B1B68414A23F4804313603F4B1B68D6
:101124003E4A43F4004313603C4B1B683B4A23F4A0
:1011340000231360394B1B68384A43F4802313603F
:10114400364B1B6A354A23F02A4323F420031362E7
:10115400324B1B6A314A43F0AA4343F4A00313629F
:101164002D4B5B6C2C4A43F4805353642C4B1B88EB
:101174009BB22B4A43F010039BB21380284B1B886D
:101184009BB2274A23F480639BB21380244B1B88B1
:101194009BB2234A43F001039BB21380204B1B886C
:1011A4009BB21F4A23F002039BB213801C4B1B8883
:1011B4009BB21B4A23F400639BB21380184B1B8819
:1011C4009BB2174A23F080039BB21380144B1B88F5
:1011D4009BB2134A43F480739BB21380104B1B8859
:1011E4009BB20F4A43F400739BB213800C4B1B88D1
:1011F4009BB20B4A43F004039BB21380084B1B8839
:101204009BB2074A43F040039BB2138000BFBD4624
:101214005DF8047B704700BF0038024000000240C4
:101224000030014080B483B000AF0346FB710F4B24
:101234001B899BB203F00203002B10D00B4BFA79ED
:1012440092B29A8100BF094B1B899BB203F08003C1
:10125400002BF8D1054B9B899BB2DBB200E0FF2346
:1012640018460C37BD465DF8047B704700300140DA
:1012740080B400AF054B5B69044A23F400735361E7
:1012840000BFBD465DF8047B704700BF000002400C
:1012940080B400AF054B5B69044A43F400735361A7
:1012A40000BFBD465DF8047B704700BF00000240EC
:1012B40080B500AFFFF7ECFF8020FFF7B3FF0020FD
:1012C400FFF7B0FFFFF7D4FF00BF80BD80B582B049
:1012D40000AF03463960FB71FFF7DAFFFB7918466C
:1012E400FFF7A0FF0020FFF79DFF03465AB23B68BB
:1012F4001A70FFF7BDFF00BF0837BD4680BD000070
:1013040090B585B000AF0023FB710023BB714FF093
:1013140000034FF00004C7E90234FB1D1946022004
:10132400FFF7D4FFBB1D19460120FFF7CFFF97F944
:1013340007301846FFF79EF803460C461A46234624
:10134400D7E90201FEF74AFF03460C46C7E9023417
:1013540097F90630DBB203F04003002B0AD04FF0BC
:101364000002114BD7E90201FEF738FF03460C4691
:10137400C7E9023497F90630002B0ADA4FF000026D
:101384000A4BD7E90201FEF729FF03460C46C7E9D9
:101394000234D7E9023444EC173BB0EE470AF0EECE
:1013A400670A1437BD4690BD0000D03F0000E03FFF
:1013B40080B483B000AF7860084611461A460346ED
:1013C400FB700B46BB7013467B702B4B1A6B7B7800
:1013D400012101FA03F3284913430B63BB78002B63
:1013E40016D07B681A68FB785B00012101FA03F3CD
:1013F4001A437B681A607B681A68FB785B000133C8
:10140400012101FA03F3DB431A407B681A602CE0E4
:101414007B681A68FB785B00012101FA03F3DB4364
:101424001A407B681A607B681A68FB785B0001339A
:10143400012101FA03F3DB431A407B681A607B68DD
:10144400DB68FA785200012101FA02F21A437B6840
:10145400DA607B68DB68FA7852000132012101FA14
:1014640002F2D2431A407B68DA6000BF0C37BD46F3
:101474005DF8047B704700BF0038024080B483B03D
:1014840000AF78600B46FB701346BB707B681A682C
:10149400FB785B00012101FA03F31340002B18D001
:1014A400BB78002B09D07B685A69FB78012101FACB
:1014B40003F31A437B685A6109E07B685A69FB7835
:1014C400012101FA03F3DB431A407B685A610023CC
:1014D40000E0012318460C37BD465DF8047B7047D5
:1014E40080B582B000AF124B1B68002B0BD0114BA0
:1014F4001B68002B07D1FFF703FF87ED000B97ED67
:10150400000BFFF7E9FC0B4B1B680133094A13601E
:10151400084B1B68084A126893FBF2F102FB01F2C4
:101524009B1A044A136000BF0837BD4680BD00BF44
:1015340000000020540400200400002080B400AF08
:10154400034B01221A6000BFBD465DF8047B70475F
:101554000000002080B483B000AF78607B68074A45
:1015640082FB03125211DB17D31A054A136000BF22
:101574000C37BD465DF8047B704700BF1F85EB51F7
:101584000400002080B500AFFFF7E8FAFFF7A0FDE4
:10159400FFF78EFEFFF75EFDFFF782FD4FF4FA7052
:1015A400FFF7D8FFFFF7CAFFFEE780B500AF4FF0A3
:1015B40080431B8A9BB24FF0804223F001039BB20D
:1015C4001382FFF77EFD00BF80BD000080B500AF31
:1015D400164BD3F88830154A43F47003C2F88830A8
:1015E400134B1B68124A43F001031360104B002293
:1015F4009A600F4B1B680E4A23F0847323F48033E4
:1016040013600B4B0B4A5A60094B1B68084A23F4BE
:1016140080231360064B0022DA6000F00DF8034BC0
:101624004FF000629A6000BF80BD00BF00ED00E093
:10163400003802401030002480B483B000AF00238F
:101644007B6000233B60354B1B68344A43F4803392
:101654001360324B1B6803F400333B607B68013337
:101664007B603B68002B03D17B68B3F5A04FF0D1BE
:101674002A4B1B6803F40033002B02D001233B6088
:1016840001E000233B603B68012B40D1234B1B6CE2
:10169400224A43F080531364214B1B68204A43F4CD
:1016A400404313601D4B1D4A9B6893601B4B1B4AB0
:1016B4009B689360194B9B68184A43F4805393606A
:1016C400164B184A5A60154B1B68144A43F0807332
:1016D400136000BF114B1B6803F00073002BF9D09B
:1016E400114B40F202721A600C4B9B680B4A23F0B8
:1016F40003039360094B9B68084A43F00203936019
:1017040000BF064B9B6803F00C03082BF9D100BF04
:101714000C37BD465DF8047B704700BF00380240BB
:101724000070004019544107003C02400D488546B2
:101734000D480E490E4A002302E0D458C450043325
:10174400C4188C42F9D30B4A0B4C002301E01360FC
:101754000432A242FBD3FFF739FF00F011F8FFF780
:1017640011FFFEE7000001200000002034040020E7
:10177400F4190008340400207C040020FEE7000073
:1017840070B50D4E0D4D761BB61006D000240134F5
:1017940055F8043B9847A642F9D1094E094D761BEA
:1017A40000F0FEF8B61006D00024013455F8043BCE
:1017B4009847A642F9D170BDE8190008E819000855
:1017C400F0190008E8190008931E222B15D80A2ADC
:1017D40010B50B4605D00C46194600F013F8204608
:1017E40010BD0028F7DA2D2403F8014B40420C46C3
:1017F400194600F007F8204610BD00200870704715
:10180400FFF7E2BFF0B4DFF878C0174604460E468F
:10181400BCE80F008AB06D460FC5BCE80F000FC5C9
:101824009CE80300BB1E45F8040B222B297023D827
:10183400751E2846002200E01A46B4FBF7F10AABF5
:1018440007FB114423440C4613F8283C00F8013FDD
:10185400531C0029F0D1F15452B1334413F8011D43
:1018640015F8010F29700134111B8C421870F5DB37
:1018740030460AB0F0BC704700203070F9E700BF72
:10188400C0190008024B13B1024800F005B87047B4
:1018940000000000A9180008002301461A46184653
:1018A40000F01EB838B50A4C0A4D641BA4100AD0C7
:1018B40004F18043013B05EB8305013C55F80439F1
:1018C4009847002CF9D1BDE8384000F06FB800BF4C
:1018D400F4190008F0190008704700BF704700BFF2
:1018E4002DE9F8432B4D0646286898460F46914645
:1018F400FFF7F2FF284B1C68D4F84831002B3DD089
:101904005A681F2A0DDC02F1010C16BB0232C3F81F
:1019140004C0286843F82270FFF7E0FF0020BDE808
:10192400F8831E4B7BB34FF4C870AFF300800346BB
:1019340048B3D4F848210021C0E900214FF0010C3C
:10194400C4F848010A46C0F88811C0F88C11002E6A
:10195400DCD003EB82010124C1F88890D3F888011C
:1019640094402043022EC3F88801C1F80881CDD1E8
:10197400D3F88C110C43C3F88C41C7E704F5A67364
:10198400C4F84831BCE72868FFF7A8FF4FF0FF30E0
:10199400C5E700BF30040020BC19000800000000A7
:1019A400F8B500BFF8BC08BC9E467047F8B500BF48
:0819B400F8BC08BC9E46704718
:1019BC000800002030313233343536373839616223
:1019CC00636465666768696A6B6C6D6E6F70717263
:0C19DC00737475767778797A000000004B
:0819E80089180008B90100088C
:0419F0009501000855
:1019F400010000000100000000000000F4020020CB
:101A04005C030020C403002000000000000000006C
:101A140000000000000000000000000000000000C2
:101A240000000000000000000000000000000000B2
:101A340000000000000000000000000000000000A2
:101A44000000000000000000000000000000000092
:101A54000000000000000000000000000000000082
:101A64000000000000000000000000000000000072
:101A74000000000000000000000000000000000062
:101A84000000000000000000000000000000000052
:101A94000000000000000000000000000000000042
:101AA40001000000000000000E33CDAB34126DE6DF
:101AB400ECDE05000B000000000000000000000048
:101AC4000000000000000000000000000000000012
:101AD4000000000000000000000000000000000002
:101AE40000000000000000000000000000000000F2
:101AF40000000000000000000000000000000000E2
:041E2400580400203E
:0400000508001731A7
:00000001FF
